{
  "_format": "hh-sol-artifact-1",
  "contractName": "BUIDL11",
  "sourceName": "contracts/BUIDL11.sol",
  "abi": [
    {
      "inputs": [],
      "stateMutability": "nonpayable",
      "type": "constructor"
    },
    {
      "inputs": [
        {
          "internalType": "string",
          "name": "teamName",
          "type": "string"
        }
      ],
      "name": "addFantasyTeam",
      "outputs": [],
      "stateMutability": "nonpayable",
      "type": "function"
    },
    {
      "inputs": [
        {
          "internalType": "uint256[]",
          "name": "_playerIDs",
          "type": "uint256[]"
        }
      ],
      "name": "addPlayerToFantasyTeam",
      "outputs": [],
      "stateMutability": "nonpayable",
      "type": "function"
    },
    {
      "inputs": [
        {
          "internalType": "string[]",
          "name": "_playerNames",
          "type": "string[]"
        }
      ],
      "name": "addPlayerToGame",
      "outputs": [],
      "stateMutability": "nonpayable",
      "type": "function"
    },
    {
      "inputs": [],
      "name": "bid",
      "outputs": [],
      "stateMutability": "payable",
      "type": "function"
    },
    {
      "inputs": [],
      "name": "calculateTeamsScore",
      "outputs": [],
      "stateMutability": "nonpayable",
      "type": "function"
    },
    {
      "inputs": [],
      "name": "gameBegins",
      "outputs": [],
      "stateMutability": "nonpayable",
      "type": "function"
    },
    {
      "inputs": [],
      "name": "gameStops",
      "outputs": [],
      "stateMutability": "nonpayable",
      "type": "function"
    },
    {
      "inputs": [],
      "name": "getAdmin",
      "outputs": [
        {
          "internalType": "address",
          "name": "",
          "type": "address"
        }
      ],
      "stateMutability": "view",
      "type": "function"
    },
    {
      "inputs": [],
      "name": "listPlayers",
      "outputs": [
        {
          "internalType": "string",
          "name": "",
          "type": "string"
        }
      ],
      "stateMutability": "view",
      "type": "function"
    },
    {
      "inputs": [],
      "name": "playersAddedToGame",
      "outputs": [],
      "stateMutability": "nonpayable",
      "type": "function"
    },
    {
      "inputs": [
        {
          "internalType": "uint256",
          "name": "captainID",
          "type": "uint256"
        },
        {
          "internalType": "uint256",
          "name": "viceCaptainID",
          "type": "uint256"
        }
      ],
      "name": "setCaptains",
      "outputs": [],
      "stateMutability": "nonpayable",
      "type": "function"
    },
    {
      "inputs": [
        {
          "internalType": "uint256",
          "name": "playerID",
          "type": "uint256"
        },
        {
          "internalType": "uint256",
          "name": "runs",
          "type": "uint256"
        },
        {
          "internalType": "uint256",
          "name": "wickets",
          "type": "uint256"
        }
      ],
      "name": "setplayerStats",
      "outputs": [],
      "stateMutability": "nonpayable",
      "type": "function"
    },
    {
      "inputs": [
        {
          "internalType": "uint256",
          "name": "teamSize",
          "type": "uint256"
        },
        {
          "internalType": "uint256",
          "name": "runMul",
          "type": "uint256"
        },
        {
          "internalType": "uint256",
          "name": "wicketMul",
          "type": "uint256"
        }
      ],
      "name": "startGame",
      "outputs": [],
      "stateMutability": "nonpayable",
      "type": "function"
    }
  ],
  "bytecode": "0x608060405260008060146101000a81548160ff021916908360048111156200002c576200002b62000094565b5b02179055506001600355600160045560326005553480156200004d57600080fd5b50336000806101000a81548173ffffffffffffffffffffffffffffffffffffffff021916908373ffffffffffffffffffffffffffffffffffffffff160217905550620000c3565b7f4e487b7100000000000000000000000000000000000000000000000000000000600052602160045260246000fd5b6133b680620000d36000396000f3fe6080604052600436106100c25760003560e01c80634c4501c81161007f5780638791c0b4116100595780638791c0b4146101e75780638cc804801461021057806392506fae14610227578063af5af0ce14610250576100c2565b80634c4501c81461016857806364605d51146101915780636e9960c3146101bc576100c2565b8063106ecb0a146100c75780631998aeef146100f0578063219b596b146100fa5780632c31d085146101115780632f290bfd1461013a5780634526e08b14610151575b600080fd5b3480156100d357600080fd5b506100ee60048036038101906100e99190612308565b610279565b005b6100f86104c1565b005b34801561010657600080fd5b5061010f6107e3565b005b34801561011d57600080fd5b5061013860048036038101906101339190612348565b610914565b005b34801561014657600080fd5b5061014f610a79565b005b34801561015d57600080fd5b50610166610b1c565b005b34801561017457600080fd5b5061018f600480360381019061018a919061222d565b610c4d565b005b34801561019d57600080fd5b506101a6610d9b565b6040516101b391906127f6565b60405180910390f35b3480156101c857600080fd5b506101d1610ebc565b6040516101de91906127db565b60405180910390f35b3480156101f357600080fd5b5061020e60048036038101906102099190612276565b610ee5565b005b34801561021c57600080fd5b5061022561113d565b005b34801561023357600080fd5b5061024e600480360381019061024991906122bf565b611474565b005b34801561025c57600080fd5b5061027760048036038101906102729190612348565b611679565b005b8160018054905081106102c1576040517f08c379a00000000000000000000000000000000000000000000000000000000081526004016102b890612998565b60405180910390fd5b816001805490508110610309576040517f08c379a000000000000000000000000000000000000000000000000000000000815260040161030090612998565b60405180910390fd5b6002600481111561031d5761031c612e3f565b5b600060149054906101000a900460ff16600481111561033f5761033e612e3f565b5b1461037f576040517f08c379a000000000000000000000000000000000000000000000000000000000815260040161037690612818565b60405180910390fd5b600061038a33611797565b90506002805490508114156103d4576040517f08c379a00000000000000000000000000000000000000000000000000000000081526004016103cb90612838565b60405180910390fd5b6103de8582611850565b61041d576040517f08c379a000000000000000000000000000000000000000000000000000000000815260040161041490612a38565b60405180910390fd5b6104278482611850565b610466576040517f08c379a000000000000000000000000000000000000000000000000000000000815260040161045d90612978565b60405180910390fd5b846002828154811061047b5761047a612e9d565b5b90600052602060002090600702016003018190555083600282815481106104a5576104a4612e9d565b5b9060005260206000209060070201600401819055505050505050565b600260048111156104d5576104d4612e3f565b5b600060149054906101000a900460ff1660048111156104f7576104f6612e3f565b5b14610537576040517f08c379a000000000000000000000000000000000000000000000000000000000815260040161052e90612958565b60405180910390fd5b600061054233611797565b905060028054905081141561058c576040517f08c379a000000000000000000000000000000000000000000000000000000000815260040161058390612838565b60405180910390fd5b6000600282815481106105a2576105a1612e9d565b5b90600052602060002090600702016040518060e00160405290816000820160009054906101000a900473ffffffffffffffffffffffffffffffffffffffff1673ffffffffffffffffffffffffffffffffffffffff1673ffffffffffffffffffffffffffffffffffffffff16815260200160018201805461062190612d35565b80601f016020809104026020016040519081016040528092919081815260200182805461064d90612d35565b801561069a5780601f1061066f5761010080835404028352916020019161069a565b820191906000526020600020905b81548152906001019060200180831161067d57829003601f168201915b50505050508152602001600282018054806020026020016040519081016040528092919081815260200182805480156106f257602002820191906000526020600020905b8154815260200190600101908083116106de575b5050505050815260200160038201548152602001600482015481526020016005820154815260200160068201548152505090506003548160400151511461076e576040517f08c379a000000000000000000000000000000000000000000000000000000000815260040161076590612a98565b60405180910390fd5b60008160a00151146107b5576040517f08c379a00000000000000000000000000000000000000000000000000000000081526004016107ac90612918565b60405180910390fd5b34600283815481106107ca576107c9612e9d565b5b9060005260206000209060070201600501819055505050565b60008054906101000a900473ffffffffffffffffffffffffffffffffffffffff1673ffffffffffffffffffffffffffffffffffffffff163373ffffffffffffffffffffffffffffffffffffffff1614610871576040517f08c379a000000000000000000000000000000000000000000000000000000000815260040161086890612a18565b60405180910390fd5b6003600481111561088557610884612e3f565b5b600060149054906101000a900460ff1660048111156108a7576108a6612e3f565b5b146108e7576040517f08c379a00000000000000000000000000000000000000000000000000000000081526004016108de90612a78565b60405180910390fd5b6004600060146101000a81548160ff0219169083600481111561090d5761090c612e3f565b5b0217905550565b60008054906101000a900473ffffffffffffffffffffffffffffffffffffffff1673ffffffffffffffffffffffffffffffffffffffff163373ffffffffffffffffffffffffffffffffffffffff16146109a2576040517f08c379a000000000000000000000000000000000000000000000000000000000815260040161099990612a18565b60405180910390fd5b600060048111156109b6576109b5612e3f565b5b600060149054906101000a900460ff1660048111156109d8576109d7612e3f565b5b14610a18576040517f08c379a0000000000000000000000000000000000000000000000000000000008152600401610a0f906129f8565b60405180910390fd5b60016000610a269190611d5d565b60026000610a349190611d81565b6001600060146101000a81548160ff02191690836004811115610a5a57610a59612e3f565b5b0217905550826003819055508160048190555080600581905550505050565b60016004811115610a8d57610a8c612e3f565b5b600060149054906101000a900460ff166004811115610aaf57610aae612e3f565b5b14610aef576040517f08c379a0000000000000000000000000000000000000000000000000000000008152600401610ae690612a78565b60405180910390fd5b6002600060146101000a81548160ff02191690836004811115610b1557610b14612e3f565b5b0217905550565b60008054906101000a900473ffffffffffffffffffffffffffffffffffffffff1673ffffffffffffffffffffffffffffffffffffffff163373ffffffffffffffffffffffffffffffffffffffff1614610baa576040517f08c379a0000000000000000000000000000000000000000000000000000000008152600401610ba190612a18565b60405180910390fd5b60026004811115610bbe57610bbd612e3f565b5b600060149054906101000a900460ff166004811115610be057610bdf612e3f565b5b14610c20576040517f08c379a0000000000000000000000000000000000000000000000000000000008152600401610c1790612a78565b60405180910390fd5b6003600060146101000a81548160ff02191690836004811115610c4657610c45612e3f565b5b0217905550565b60016004811115610c6157610c60612e3f565b5b600060149054906101000a900460ff166004811115610c8357610c82612e3f565b5b14610cc3576040517f08c379a0000000000000000000000000000000000000000000000000000000008152600401610cba906129d8565b60405180910390fd5b60005b8151811015610d97576000828281518110610ce457610ce3612e9d565b5b60200260200101519050610cf6611da5565b8181602001819052506001805490508160000181815250506001819080600181540180825580915050600190039060005260206000209060040201600090919091909150600082015181600001556020820151816001019080519060200190610d60929190611dcc565b5060408201518160020160008201518160000155602082015181600101555050505050508080610d8f90612d98565b915050610cc6565b5050565b606060026004811115610db157610db0612e3f565b5b600060149054906101000a900460ff166004811115610dd357610dd2612e3f565b5b14610e13576040517f08c379a0000000000000000000000000000000000000000000000000000000008152600401610e0a90612938565b60405180910390fd5b600060405180602001604052806000815250905060005b600180549050811015610eb4578160018281548110610e4c57610e4b612e9d565b5b9060005260206000209060040201600101604051602001610e6e929190612795565b604051602081830303815290604052915081604051602001610e9091906127b9565b60405160208183030381529060405291508080610eac90612d98565b915050610e2a565b508091505090565b60008060009054906101000a900473ffffffffffffffffffffffffffffffffffffffff16905090565b60005b8151811015611139576000828281518110610f0657610f05612e9d565b5b602002602001015190506001805490508110610f57576040517f08c379a0000000000000000000000000000000000000000000000000000000008152600401610f4e90612998565b60405180910390fd5b60026004811115610f6b57610f6a612e3f565b5b600060149054906101000a900460ff166004811115610f8d57610f8c612e3f565b5b14610fcd576040517f08c379a0000000000000000000000000000000000000000000000000000000008152600401610fc4906128b8565b60405180910390fd5b6000610fd833611797565b9050600280549050811415611022576040517f08c379a000000000000000000000000000000000000000000000000000000000815260040161101990612838565b60405180910390fd5b61102c8282611850565b1561106c576040517f08c379a0000000000000000000000000000000000000000000000000000000008152600401611063906128d8565b60405180910390fd5b6003546002828154811061108357611082612e9d565b5b906000526020600020906007020160020180549050106110d8576040517f08c379a00000000000000000000000000000000000000000000000000000000081526004016110cf90612a58565b60405180910390fd5b600281815481106110ec576110eb612e9d565b5b90600052602060002090600702016002018290806001815401808255809150506001900390600052602060002001600090919091909150555050808061113190612d98565b915050610ee8565b5050565b6004808111156111505761114f612e3f565b5b600060149054906101000a900460ff16600481111561117257611171612e3f565b5b146111b2576040517f08c379a00000000000000000000000000000000000000000000000000000000081526004016111a990612878565b60405180910390fd5b60005b60028054905081101561143f576000600282815481106111d8576111d7612e9d565b5b90600052602060002090600702016040518060e00160405290816000820160009054906101000a900473ffffffffffffffffffffffffffffffffffffffff1673ffffffffffffffffffffffffffffffffffffffff1673ffffffffffffffffffffffffffffffffffffffff16815260200160018201805461125790612d35565b80601f016020809104026020016040519081016040528092919081815260200182805461128390612d35565b80156112d05780601f106112a5576101008083540402835291602001916112d0565b820191906000526020600020905b8154815290600101906020018083116112b357829003601f168201915b505050505081526020016002820180548060200260200160405190810160405280929190818152602001828054801561132857602002820191906000526020600020905b815481526020019060010190808311611314575b50505050508152602001600382015481526020016004820154815260200160058201548152602001600682015481525050905060005b81604001515181101561142a576113dc8260400151828151811061138557611384612e9d565b5b6020026020010151836040015183815181106113a4576113a3612e9d565b5b6020026020010151846060015114846040015184815181106113c9576113c8612e9d565b5b6020026020010151856080015114611922565b600284815481106113f0576113ef612e9d565b5b906000526020600020906007020160060160008282546114109190612ba2565b92505081905550808061142290612d98565b91505061135e565b5050808061143790612d98565b9150506111b5565b50611448611a24565b60008060146101000a81548160ff0219169083600481111561146d5761146c612e3f565b5b0217905550565b6002600481111561148857611487612e3f565b5b600060149054906101000a900460ff1660048111156114aa576114a9612e3f565b5b146114ea576040517f08c379a00000000000000000000000000000000000000000000000000000000081526004016114e1906129b8565b60405180910390fd5b60006114f533611797565b9050600280549050811461153e576040517f08c379a000000000000000000000000000000000000000000000000000000000815260040161153590612858565b60405180910390fd5b611546611e52565b82816020018190525033816000019073ffffffffffffffffffffffffffffffffffffffff16908173ffffffffffffffffffffffffffffffffffffffff168152505060008160600181815250506001816080018181525050600281908060018154018082558091505060019003906000526020600020906007020160009091909190915060008201518160000160006101000a81548173ffffffffffffffffffffffffffffffffffffffff021916908373ffffffffffffffffffffffffffffffffffffffff160217905550602082015181600101908051906020019061162c929190611dcc565b506040820151816002019080519060200190611649929190611ea5565b50606082015181600301556080820151816004015560a0820151816005015560c082015181600601555050505050565b8260018054905081106116c1576040517f08c379a00000000000000000000000000000000000000000000000000000000081526004016116b890612998565b60405180910390fd5b600360048111156116d5576116d4612e3f565b5b600060149054906101000a900460ff1660048111156116f7576116f6612e3f565b5b14611737576040517f08c379a000000000000000000000000000000000000000000000000000000000815260040161172e906128f8565b60405180910390fd5b826001858154811061174c5761174b612e9d565b5b906000526020600020906004020160020160000181905550816001858154811061177957611778612e9d565b5b90600052602060002090600402016002016001018190555050505050565b600080600090505b600280549050811015611841578273ffffffffffffffffffffffffffffffffffffffff16600282815481106117d7576117d6612e9d565b5b906000526020600020906007020160000160009054906101000a900473ffffffffffffffffffffffffffffffffffffffff1673ffffffffffffffffffffffffffffffffffffffff16141561182e578091505061184b565b808061183990612d98565b91505061179f565b5060028054905090505b919050565b6000806002838154811061186757611866612e9d565b5b90600052602060002090600702016002018054806020026020016040519081016040528092919081815260200182805480156118c257602002820191906000526020600020905b8154815260200190600101908083116118ae575b5050505050905060005b815181101561191557848282815181106118e9576118e8612e9d565b5b602002602001015114156119025760019250505061191c565b808061190d90612d98565b9150506118cc565b5060009150505b92915050565b600082801561192e5750815b1561196e576040517f08c379a000000000000000000000000000000000000000000000000000000000815260040161196590612898565b60405180910390fd5b60006005546001868154811061198757611986612e9d565b5b9060005260206000209060040201600201600101546119a69190612c29565b600454600187815481106119bd576119bc612e9d565b5b9060005260206000209060040201600201600001546119dc9190612c29565b6119e69190612ba2565b90508315611a02576003816119fb9190612c29565b9050611a19565b8215611a1857600281611a159190612c29565b90505b5b809150509392505050565b60008054906101000a900473ffffffffffffffffffffffffffffffffffffffff1673ffffffffffffffffffffffffffffffffffffffff163373ffffffffffffffffffffffffffffffffffffffff1614611ab2576040517f08c379a0000000000000000000000000000000000000000000000000000000008152600401611aa990612a18565b60405180910390fd5b60008060005b600280549050811015611b6e5760028181548110611ad957611ad8612e9d565b5b90600052602060002090600702016006015460028281548110611aff57611afe612e9d565b5b906000526020600020906007020160050154611b1b9190612c29565b83611b269190612ba2565b925060028181548110611b3c57611b3b612e9d565b5b90600052602060002090600702016005015482611b599190612ba2565b91508080611b6690612d98565b915050611ab8565b506000606482600a611b809190612c29565b611b8a9190612bf8565b90508082611b989190612c83565b915060008054906101000a900473ffffffffffffffffffffffffffffffffffffffff1673ffffffffffffffffffffffffffffffffffffffff166108fc829081150290604051600060405180830381858888f19350505050158015611c00573d6000803e3d6000fd5b5060005b600280549050811015611d5757600080851415611c485760028281548110611c2f57611c2e612e9d565b5b9060005260206000209060070201600501549050611cb7565b848460028481548110611c5e57611c5d612e9d565b5b90600052602060002090600702016006015460028581548110611c8457611c83612e9d565b5b906000526020600020906007020160050154611ca09190612c29565b611caa9190612c29565b611cb49190612bf8565b90505b60028281548110611ccb57611cca612e9d565b5b906000526020600020906007020160000160009054906101000a900473ffffffffffffffffffffffffffffffffffffffff1673ffffffffffffffffffffffffffffffffffffffff166108fc829081150290604051600060405180830381858888f19350505050158015611d42573d6000803e3d6000fd5b50508080611d4f90612d98565b915050611c04565b50505050565b5080546000825560040290600052602060002090810190611d7e9190611ef2565b50565b5080546000825560070290600052602060002090810190611da29190611f38565b50565b60405180606001604052806000815260200160608152602001611dc6611fb6565b81525090565b828054611dd890612d35565b90600052602060002090601f016020900481019282611dfa5760008555611e41565b82601f10611e1357805160ff1916838001178555611e41565b82800160010185558215611e41579182015b82811115611e40578251825591602001919060010190611e25565b5b509050611e4e9190611fd0565b5090565b6040518060e00160405280600073ffffffffffffffffffffffffffffffffffffffff1681526020016060815260200160608152602001600081526020016000815260200160008152602001600081525090565b828054828255906000526020600020908101928215611ee1579160200282015b82811115611ee0578251825591602001919060010190611ec5565b5b509050611eee9190611fd0565b5090565b5b80821115611f3457600080820160009055600182016000611f149190611fed565b600282016000808201600090556001820160009055505050600401611ef3565b5090565b5b80821115611fb257600080820160006101000a81549073ffffffffffffffffffffffffffffffffffffffff0219169055600182016000611f799190611fed565b600282016000611f89919061202d565b600382016000905560048201600090556005820160009055600682016000905550600701611f39565b5090565b604051806040016040528060008152602001600081525090565b5b80821115611fe9576000816000905550600101611fd1565b5090565b508054611ff990612d35565b6000825580601f1061200b575061202a565b601f0160209004906000526020600020908101906120299190611fd0565b5b50565b508054600082559060005260206000209081019061204b9190611fd0565b50565b600061206161205c84612add565b612ab8565b9050808382526020820190508285602086028201111561208457612083612f00565b5b60005b858110156120d257813567ffffffffffffffff8111156120aa576120a9612efb565b5b8086016120b789826121ea565b85526020850194506020840193505050600181019050612087565b5050509392505050565b60006120ef6120ea84612b09565b612ab8565b9050808382526020820190508285602086028201111561211257612111612f00565b5b60005b8581101561214257816121288882612218565b845260208401935060208301925050600181019050612115565b5050509392505050565b600061215f61215a84612b35565b612ab8565b90508281526020810184848401111561217b5761217a612f05565b5b612186848285612cf3565b509392505050565b600082601f8301126121a3576121a2612efb565b5b81356121b384826020860161204e565b91505092915050565b600082601f8301126121d1576121d0612efb565b5b81356121e18482602086016120dc565b91505092915050565b600082601f8301126121ff576121fe612efb565b5b813561220f84826020860161214c565b91505092915050565b60008135905061222781613369565b92915050565b60006020828403121561224357612242612f0f565b5b600082013567ffffffffffffffff81111561226157612260612f0a565b5b61226d8482850161218e565b91505092915050565b60006020828403121561228c5761228b612f0f565b5b600082013567ffffffffffffffff8111156122aa576122a9612f0a565b5b6122b6848285016121bc565b91505092915050565b6000602082840312156122d5576122d4612f0f565b5b600082013567ffffffffffffffff8111156122f3576122f2612f0a565b5b6122ff848285016121ea565b91505092915050565b6000806040838503121561231f5761231e612f0f565b5b600061232d85828601612218565b925050602061233e85828601612218565b9150509250929050565b60008060006060848603121561236157612360612f0f565b5b600061236f86828701612218565b935050602061238086828701612218565b925050604061239186828701612218565b9150509250925092565b6123a481612cb7565b82525050565b60006123b582612b7b565b6123bf8185612b86565b93506123cf818560208601612d02565b6123d881612f14565b840191505092915050565b60006123ee82612b7b565b6123f88185612b97565b9350612408818560208601612d02565b80840191505092915050565b6000815461242181612d35565b61242b8186612b97565b9450600182166000811461244657600181146124575761248a565b60ff1983168652818601935061248a565b61246085612b66565b60005b8381101561248257815481890152600182019150602081019050612463565b838801955050505b50505092915050565b60006124a0602b83612b86565b91506124ab82612f25565b604082019050919050565b60006124c3602183612b86565b91506124ce82612f74565b604082019050919050565b60006124e6602083612b86565b91506124f182612fc3565b602082019050919050565b6000612509601483612b86565b915061251482612fec565b602082019050919050565b600061252c603d83612b86565b915061253782613015565b604082019050919050565b600061254f600183612b97565b915061255a82613064565b600182019050919050565b6000612572602a83612b86565b915061257d8261308d565b604082019050919050565b6000612595601a83612b86565b91506125a0826130dc565b602082019050919050565b60006125b8601c83612b86565b91506125c382613105565b602082019050919050565b60006125db600f83612b86565b91506125e68261312e565b602082019050919050565b60006125fe601b83612b86565b915061260982613157565b602082019050919050565b6000612621601883612b86565b915061262c82613180565b602082019050919050565b6000612644601683612b86565b915061264f826131a9565b602082019050919050565b6000612667601583612b86565b9150612672826131d2565b602082019050919050565b600061268a602083612b86565b9150612695826131fb565b602082019050919050565b60006126ad601483612b86565b91506126b882613224565b602082019050919050565b60006126d0601883612b86565b91506126db8261324d565b602082019050919050565b60006126f3602283612b86565b91506126fe82613276565b604082019050919050565b6000612716601183612b86565b9150612721826132c5565b602082019050919050565b6000612739601183612b86565b9150612744826132ee565b602082019050919050565b600061275c601383612b86565b915061276782613317565b602082019050919050565b600061277f600f83612b86565b915061278a82613340565b602082019050919050565b60006127a182856123e3565b91506127ad8284612414565b91508190509392505050565b60006127c582846123e3565b91506127d082612542565b915081905092915050565b60006020820190506127f0600083018461239b565b92915050565b6000602082019050818103600083015261281081846123aa565b905092915050565b6000602082019050818103600083015261283181612493565b9050919050565b60006020820190508181036000830152612851816124b6565b9050919050565b60006020820190508181036000830152612871816124d9565b9050919050565b60006020820190508181036000830152612891816124fc565b9050919050565b600060208201905081810360008301526128b18161251f565b9050919050565b600060208201905081810360008301526128d181612565565b9050919050565b600060208201905081810360008301526128f181612588565b9050919050565b60006020820190508181036000830152612911816125ab565b9050919050565b60006020820190508181036000830152612931816125ce565b9050919050565b60006020820190508181036000830152612951816125f1565b9050919050565b6000602082019050818103600083015261297181612614565b9050919050565b6000602082019050818103600083015261299181612637565b9050919050565b600060208201905081810360008301526129b18161265a565b9050919050565b600060208201905081810360008301526129d18161267d565b9050919050565b600060208201905081810360008301526129f1816126a0565b9050919050565b60006020820190508181036000830152612a11816126c3565b9050919050565b60006020820190508181036000830152612a31816126e6565b9050919050565b60006020820190508181036000830152612a5181612709565b9050919050565b60006020820190508181036000830152612a718161272c565b9050919050565b60006020820190508181036000830152612a918161274f565b9050919050565b60006020820190508181036000830152612ab181612772565b9050919050565b6000612ac2612ad3565b9050612ace8282612d67565b919050565b6000604051905090565b600067ffffffffffffffff821115612af857612af7612ecc565b5b602082029050602081019050919050565b600067ffffffffffffffff821115612b2457612b23612ecc565b5b602082029050602081019050919050565b600067ffffffffffffffff821115612b5057612b4f612ecc565b5b612b5982612f14565b9050602081019050919050565b60008190508160005260206000209050919050565b600081519050919050565b600082825260208201905092915050565b600081905092915050565b6000612bad82612ce9565b9150612bb883612ce9565b9250827fffffffffffffffffffffffffffffffffffffffffffffffffffffffffffffffff03821115612bed57612bec612de1565b5b828201905092915050565b6000612c0382612ce9565b9150612c0e83612ce9565b925082612c1e57612c1d612e10565b5b828204905092915050565b6000612c3482612ce9565b9150612c3f83612ce9565b9250817fffffffffffffffffffffffffffffffffffffffffffffffffffffffffffffffff0483118215151615612c7857612c77612de1565b5b828202905092915050565b6000612c8e82612ce9565b9150612c9983612ce9565b925082821015612cac57612cab612de1565b5b828203905092915050565b6000612cc282612cc9565b9050919050565b600073ffffffffffffffffffffffffffffffffffffffff82169050919050565b6000819050919050565b82818337600083830152505050565b60005b83811015612d20578082015181840152602081019050612d05565b83811115612d2f576000848401525b50505050565b60006002820490506001821680612d4d57607f821691505b60208210811415612d6157612d60612e6e565b5b50919050565b612d7082612f14565b810181811067ffffffffffffffff82111715612d8f57612d8e612ecc565b5b80604052505050565b6000612da382612ce9565b91507fffffffffffffffffffffffffffffffffffffffffffffffffffffffffffffffff821415612dd657612dd5612de1565b5b600182019050919050565b7f4e487b7100000000000000000000000000000000000000000000000000000000600052601160045260246000fd5b7f4e487b7100000000000000000000000000000000000000000000000000000000600052601260045260246000fd5b7f4e487b7100000000000000000000000000000000000000000000000000000000600052602160045260246000fd5b7f4e487b7100000000000000000000000000000000000000000000000000000000600052602260045260246000fd5b7f4e487b7100000000000000000000000000000000000000000000000000000000600052603260045260246000fd5b7f4e487b7100000000000000000000000000000000000000000000000000000000600052604160045260246000fd5b600080fd5b600080fd5b600080fd5b600080fd5b600080fd5b6000601f19601f8301169050919050565b7f43616e277420736574206361707461696e7320666f72207468652066616e746160008201527f7379207465616d206e6f77000000000000000000000000000000000000000000602082015250565b7f5465616d20646f6573206e6f742065786973747320666f72207468652075736560008201527f7200000000000000000000000000000000000000000000000000000000000000602082015250565b7f5465616d20616c72656164792065786973747320666f72207468652075736572600082015250565b7f47616d6520686173206e6f742073746f70706564000000000000000000000000600082015250565b7f4120706c617965722063616e206e6f74206265204361707461696e20616e642060008201527f56696365204361707461696e206174207468652073616d652074696d65000000602082015250565b7f2c00000000000000000000000000000000000000000000000000000000000000600082015250565b7f506c61796572732063616e277420626520616464656420746f2066616e74617360008201527f79207465616d206e6f7700000000000000000000000000000000000000000000602082015250565b7f506c6179657220616c726561647920696e20746865207465616d000000000000600082015250565b7f43616e27742073657420706c617965722773207374617473206e6f7700000000600082015250565b7f43616e27742062696420616761696e0000000000000000000000000000000000600082015250565b7f506c61796572732063616e2774206265206c6973746564206e6f770000000000600082015250565b7f426964732063616e277420626520706c61636564206e6f770000000000000000600082015250565b7f56696365204361707461696e206e6f7420616464656400000000000000000000600082015250565b7f506c6179657220646f6573206e6f742065786973740000000000000000000000600082015250565b7f46616e74617379207465616d732063616e2774206265206164646564206e6f77600082015250565b7f43616e27742061646420706c61796572206e6f77000000000000000000000000600082015250565b7f47616d6520616c726561647920696e2070726f67726573730000000000000000600082015250565b7f4d7573742062652061646d696e20746f2075736520746869732066756e63697460008201527f6f6e000000000000000000000000000000000000000000000000000000000000602082015250565b7f4361707461696e206e6f74206164646564000000000000000000000000000000600082015250565b7f5465616d20616c72656164792046756c6c000000000000000000000000000000600082015250565b7f43616e2774206368616e67652073746174757300000000000000000000000000600082015250565b7f5465616d20496e636f6d706c6574650000000000000000000000000000000000600082015250565b61337281612ce9565b811461337d57600080fd5b5056fea2646970667358221220fea6c0b4fdf1fffa8c1e1e06164e8846318bbda11171183527adde1094872d9664736f6c63430008070033",
  "linkReferences": {},
  "deployedLinkReferences": {}
}