{
  "_format": "hh-sol-artifact-1",
  "contractName": "BUIDL11",
  "sourceName": "contracts/BUIDL11.sol",
  "abi": [
    {
      "inputs": [],
      "stateMutability": "nonpayable",
      "type": "constructor"
    },
    {
      "inputs": [
        {
          "internalType": "string",
          "name": "teamName",
          "type": "string"
        }
      ],
      "name": "addFantasyTeam",
      "outputs": [],
      "stateMutability": "nonpayable",
      "type": "function"
    },
    {
      "inputs": [
        {
          "internalType": "uint256[]",
          "name": "_playerIDs",
          "type": "uint256[]"
        }
      ],
      "name": "addPlayerToFantasyTeam",
      "outputs": [],
      "stateMutability": "nonpayable",
      "type": "function"
    },
    {
      "inputs": [
        {
          "internalType": "string[]",
          "name": "_playerNames",
          "type": "string[]"
        }
      ],
      "name": "addPlayerToGame",
      "outputs": [],
      "stateMutability": "nonpayable",
      "type": "function"
    },
    {
      "inputs": [],
      "name": "bid",
      "outputs": [],
      "stateMutability": "payable",
      "type": "function"
    },
    {
      "inputs": [],
      "name": "calculateTeamsScore",
      "outputs": [],
      "stateMutability": "nonpayable",
      "type": "function"
    },
    {
      "inputs": [],
      "name": "gameBegins",
      "outputs": [],
      "stateMutability": "nonpayable",
      "type": "function"
    },
    {
      "inputs": [],
      "name": "gameStops",
      "outputs": [],
      "stateMutability": "nonpayable",
      "type": "function"
    },
    {
      "inputs": [],
      "name": "getAdmin",
      "outputs": [
        {
          "internalType": "address",
          "name": "",
          "type": "address"
        }
      ],
      "stateMutability": "view",
      "type": "function"
    },
    {
      "inputs": [],
      "name": "listPlayers",
      "outputs": [
        {
          "internalType": "string",
          "name": "",
          "type": "string"
        }
      ],
      "stateMutability": "view",
      "type": "function"
    },
    {
      "inputs": [],
      "name": "playersAddedToGame",
      "outputs": [],
      "stateMutability": "nonpayable",
      "type": "function"
    },
    {
      "inputs": [
        {
          "internalType": "uint256",
          "name": "captainID",
          "type": "uint256"
        },
        {
          "internalType": "uint256",
          "name": "viceCaptainID",
          "type": "uint256"
        }
      ],
      "name": "setCaptains",
      "outputs": [],
      "stateMutability": "nonpayable",
      "type": "function"
    },
    {
      "inputs": [
        {
          "internalType": "uint256",
          "name": "playerID",
          "type": "uint256"
        },
        {
          "internalType": "uint256",
          "name": "runs",
          "type": "uint256"
        },
        {
          "internalType": "uint256",
          "name": "wickets",
          "type": "uint256"
        }
      ],
      "name": "setplayerStats",
      "outputs": [],
      "stateMutability": "nonpayable",
      "type": "function"
    },
    {
      "inputs": [
        {
          "internalType": "uint256",
          "name": "teamSize",
          "type": "uint256"
        },
        {
          "internalType": "uint256",
          "name": "runMul",
          "type": "uint256"
        },
        {
          "internalType": "uint256",
          "name": "wicketMul",
          "type": "uint256"
        }
      ],
      "name": "startGame",
      "outputs": [],
      "stateMutability": "nonpayable",
      "type": "function"
    }
  ],
  "bytecode": "0x608060405260008060146101000a81548160ff021916908360048111156200002c576200002b62000094565b5b02179055506001600355600160045560326005553480156200004d57600080fd5b50336000806101000a81548173ffffffffffffffffffffffffffffffffffffffff021916908373ffffffffffffffffffffffffffffffffffffffff160217905550620000c3565b7f4e487b7100000000000000000000000000000000000000000000000000000000600052602160045260246000fd5b61371880620000d36000396000f3fe6080604052600436106100c25760003560e01c80634c4501c81161007f5780638791c0b4116100595780638791c0b4146101e75780638cc804801461021057806392506fae14610227578063af5af0ce14610250576100c2565b80634c4501c81461016857806364605d51146101915780636e9960c3146101bc576100c2565b8063106ecb0a146100c75780631998aeef146100f0578063219b596b146100fa5780632c31d085146101115780632f290bfd1461013a5780634526e08b14610151575b600080fd5b3480156100d357600080fd5b506100ee60048036038101906100e99190612526565b610279565b005b6100f86104c1565b005b34801561010657600080fd5b5061010f6107e3565b005b34801561011d57600080fd5b5061013860048036038101906101339190612566565b610914565b005b34801561014657600080fd5b5061014f610a79565b005b34801561015d57600080fd5b50610166610b1c565b005b34801561017457600080fd5b5061018f600480360381019061018a919061244b565b610c4d565b005b34801561019d57600080fd5b506101a6610d9b565b6040516101b39190612ac2565b60405180910390f35b3480156101c857600080fd5b506101d1610f51565b6040516101de9190612aa7565b60405180910390f35b3480156101f357600080fd5b5061020e60048036038101906102099190612494565b610f7a565b005b34801561021c57600080fd5b506102256111d2565b005b34801561023357600080fd5b5061024e600480360381019061024991906124dd565b611509565b005b34801561025c57600080fd5b5061027760048036038101906102729190612566565b61170e565b005b8160018054905081106102c1576040517f08c379a00000000000000000000000000000000000000000000000000000000081526004016102b890612c64565b60405180910390fd5b816001805490508110610309576040517f08c379a000000000000000000000000000000000000000000000000000000000815260040161030090612c64565b60405180910390fd5b6002600481111561031d5761031c61314f565b5b600060149054906101000a900460ff16600481111561033f5761033e61314f565b5b1461037f576040517f08c379a000000000000000000000000000000000000000000000000000000000815260040161037690612ae4565b60405180910390fd5b600061038a3361182c565b90506002805490508114156103d4576040517f08c379a00000000000000000000000000000000000000000000000000000000081526004016103cb90612b04565b60405180910390fd5b6103de85826118e5565b61041d576040517f08c379a000000000000000000000000000000000000000000000000000000000815260040161041490612d04565b60405180910390fd5b61042784826118e5565b610466576040517f08c379a000000000000000000000000000000000000000000000000000000000815260040161045d90612c44565b60405180910390fd5b846002828154811061047b5761047a6131ad565b5b90600052602060002090600702016003018190555083600282815481106104a5576104a46131ad565b5b9060005260206000209060070201600401819055505050505050565b600260048111156104d5576104d461314f565b5b600060149054906101000a900460ff1660048111156104f7576104f661314f565b5b14610537576040517f08c379a000000000000000000000000000000000000000000000000000000000815260040161052e90612c24565b60405180910390fd5b60006105423361182c565b905060028054905081141561058c576040517f08c379a000000000000000000000000000000000000000000000000000000000815260040161058390612b04565b60405180910390fd5b6000600282815481106105a2576105a16131ad565b5b90600052602060002090600702016040518060e00160405290816000820160009054906101000a900473ffffffffffffffffffffffffffffffffffffffff1673ffffffffffffffffffffffffffffffffffffffff1673ffffffffffffffffffffffffffffffffffffffff16815260200160018201805461062190613045565b80601f016020809104026020016040519081016040528092919081815260200182805461064d90613045565b801561069a5780601f1061066f5761010080835404028352916020019161069a565b820191906000526020600020905b81548152906001019060200180831161067d57829003601f168201915b50505050508152602001600282018054806020026020016040519081016040528092919081815260200182805480156106f257602002820191906000526020600020905b8154815260200190600101908083116106de575b5050505050815260200160038201548152602001600482015481526020016005820154815260200160068201548152505090506003548160400151511461076e576040517f08c379a000000000000000000000000000000000000000000000000000000000815260040161076590612d64565b60405180910390fd5b60008160a00151146107b5576040517f08c379a00000000000000000000000000000000000000000000000000000000081526004016107ac90612be4565b60405180910390fd5b34600283815481106107ca576107c96131ad565b5b9060005260206000209060070201600501819055505050565b60008054906101000a900473ffffffffffffffffffffffffffffffffffffffff1673ffffffffffffffffffffffffffffffffffffffff163373ffffffffffffffffffffffffffffffffffffffff1614610871576040517f08c379a000000000000000000000000000000000000000000000000000000000815260040161086890612ce4565b60405180910390fd5b600360048111156108855761088461314f565b5b600060149054906101000a900460ff1660048111156108a7576108a661314f565b5b146108e7576040517f08c379a00000000000000000000000000000000000000000000000000000000081526004016108de90612d44565b60405180910390fd5b6004600060146101000a81548160ff0219169083600481111561090d5761090c61314f565b5b0217905550565b60008054906101000a900473ffffffffffffffffffffffffffffffffffffffff1673ffffffffffffffffffffffffffffffffffffffff163373ffffffffffffffffffffffffffffffffffffffff16146109a2576040517f08c379a000000000000000000000000000000000000000000000000000000000815260040161099990612ce4565b60405180910390fd5b600060048111156109b6576109b561314f565b5b600060149054906101000a900460ff1660048111156109d8576109d761314f565b5b14610a18576040517f08c379a0000000000000000000000000000000000000000000000000000000008152600401610a0f90612cc4565b60405180910390fd5b60016000610a269190611f7b565b60026000610a349190611f9f565b6001600060146101000a81548160ff02191690836004811115610a5a57610a5961314f565b5b0217905550826003819055508160048190555080600581905550505050565b60016004811115610a8d57610a8c61314f565b5b600060149054906101000a900460ff166004811115610aaf57610aae61314f565b5b14610aef576040517f08c379a0000000000000000000000000000000000000000000000000000000008152600401610ae690612d44565b60405180910390fd5b6002600060146101000a81548160ff02191690836004811115610b1557610b1461314f565b5b0217905550565b60008054906101000a900473ffffffffffffffffffffffffffffffffffffffff1673ffffffffffffffffffffffffffffffffffffffff163373ffffffffffffffffffffffffffffffffffffffff1614610baa576040517f08c379a0000000000000000000000000000000000000000000000000000000008152600401610ba190612ce4565b60405180910390fd5b60026004811115610bbe57610bbd61314f565b5b600060149054906101000a900460ff166004811115610be057610bdf61314f565b5b14610c20576040517f08c379a0000000000000000000000000000000000000000000000000000000008152600401610c1790612d44565b60405180910390fd5b6003600060146101000a81548160ff02191690836004811115610c4657610c4561314f565b5b0217905550565b60016004811115610c6157610c6061314f565b5b600060149054906101000a900460ff166004811115610c8357610c8261314f565b5b14610cc3576040517f08c379a0000000000000000000000000000000000000000000000000000000008152600401610cba90612ca4565b60405180910390fd5b60005b8151811015610d97576000828281518110610ce457610ce36131ad565b5b60200260200101519050610cf6611fc3565b8181602001819052506001805490508160000181815250506001819080600181540180825580915050600190039060005260206000209060040201600090919091909150600082015181600001556020820151816001019080519060200190610d60929190611fea565b5060408201518160020160008201518160000155602082015181600101555050505050508080610d8f906130a8565b915050610cc6565b5050565b606060026004811115610db157610db061314f565b5b600060149054906101000a900460ff166004811115610dd357610dd261314f565b5b14610e13576040517f08c379a0000000000000000000000000000000000000000000000000000000008152600401610e0a90612c04565b60405180910390fd5b600060405180602001604052806000815250905060005b600180549050811015610f495781604051602001610e489190612a85565b604051602081830303815290604052915081610e8860018381548110610e7157610e706131ad565b5b9060005260206000209060040201600001546119b7565b604051602001610e999291906129f9565b604051602081830303815290604052915081604051602001610ebb9190612a63565b60405160208183030381529060405291508160018281548110610ee157610ee06131ad565b5b9060005260206000209060040201600101604051602001610f03929190612a1d565b604051602081830303815290604052915081604051602001610f259190612a41565b60405160208183030381529060405291508080610f41906130a8565b915050610e2a565b508091505090565b60008060009054906101000a900473ffffffffffffffffffffffffffffffffffffffff16905090565b60005b81518110156111ce576000828281518110610f9b57610f9a6131ad565b5b602002602001015190506001805490508110610fec576040517f08c379a0000000000000000000000000000000000000000000000000000000008152600401610fe390612c64565b60405180910390fd5b6002600481111561100057610fff61314f565b5b600060149054906101000a900460ff1660048111156110225761102161314f565b5b14611062576040517f08c379a000000000000000000000000000000000000000000000000000000000815260040161105990612b84565b60405180910390fd5b600061106d3361182c565b90506002805490508114156110b7576040517f08c379a00000000000000000000000000000000000000000000000000000000081526004016110ae90612b04565b60405180910390fd5b6110c182826118e5565b15611101576040517f08c379a00000000000000000000000000000000000000000000000000000000081526004016110f890612ba4565b60405180910390fd5b60035460028281548110611118576111176131ad565b5b9060005260206000209060070201600201805490501061116d576040517f08c379a000000000000000000000000000000000000000000000000000000000815260040161116490612d24565b60405180910390fd5b60028181548110611181576111806131ad565b5b9060005260206000209060070201600201829080600181540180825580915050600190039060005260206000200160009091909190915055505080806111c6906130a8565b915050610f7d565b5050565b6004808111156111e5576111e461314f565b5b600060149054906101000a900460ff1660048111156112075761120661314f565b5b14611247576040517f08c379a000000000000000000000000000000000000000000000000000000000815260040161123e90612b44565b60405180910390fd5b60005b6002805490508110156114d45760006002828154811061126d5761126c6131ad565b5b90600052602060002090600702016040518060e00160405290816000820160009054906101000a900473ffffffffffffffffffffffffffffffffffffffff1673ffffffffffffffffffffffffffffffffffffffff1673ffffffffffffffffffffffffffffffffffffffff1681526020016001820180546112ec90613045565b80601f016020809104026020016040519081016040528092919081815260200182805461131890613045565b80156113655780601f1061133a57610100808354040283529160200191611365565b820191906000526020600020905b81548152906001019060200180831161134857829003601f168201915b50505050508152602001600282018054806020026020016040519081016040528092919081815260200182805480156113bd57602002820191906000526020600020905b8154815260200190600101908083116113a9575b50505050508152602001600382015481526020016004820154815260200160058201548152602001600682015481525050905060005b8160400151518110156114bf576114718260400151828151811061141a576114196131ad565b5b602002602001015183604001518381518110611439576114386131ad565b5b60200260200101518460600151148460400151848151811061145e5761145d6131ad565b5b6020026020010151856080015114611b40565b60028481548110611485576114846131ad565b5b906000526020600020906007020160060160008282546114a59190612e6e565b9250508190555080806114b7906130a8565b9150506113f3565b505080806114cc906130a8565b91505061124a565b506114dd611c42565b60008060146101000a81548160ff021916908360048111156115025761150161314f565b5b0217905550565b6002600481111561151d5761151c61314f565b5b600060149054906101000a900460ff16600481111561153f5761153e61314f565b5b1461157f576040517f08c379a000000000000000000000000000000000000000000000000000000000815260040161157690612c84565b60405180910390fd5b600061158a3361182c565b905060028054905081146115d3576040517f08c379a00000000000000000000000000000000000000000000000000000000081526004016115ca90612b24565b60405180910390fd5b6115db612070565b82816020018190525033816000019073ffffffffffffffffffffffffffffffffffffffff16908173ffffffffffffffffffffffffffffffffffffffff168152505060008160600181815250506001816080018181525050600281908060018154018082558091505060019003906000526020600020906007020160009091909190915060008201518160000160006101000a81548173ffffffffffffffffffffffffffffffffffffffff021916908373ffffffffffffffffffffffffffffffffffffffff16021790555060208201518160010190805190602001906116c1929190611fea565b5060408201518160020190805190602001906116de9291906120c3565b50606082015181600301556080820151816004015560a0820151816005015560c082015181600601555050505050565b826001805490508110611756576040517f08c379a000000000000000000000000000000000000000000000000000000000815260040161174d90612c64565b60405180910390fd5b6003600481111561176a5761176961314f565b5b600060149054906101000a900460ff16600481111561178c5761178b61314f565b5b146117cc576040517f08c379a00000000000000000000000000000000000000000000000000000000081526004016117c390612bc4565b60405180910390fd5b82600185815481106117e1576117e06131ad565b5b906000526020600020906004020160020160000181905550816001858154811061180e5761180d6131ad565b5b90600052602060002090600402016002016001018190555050505050565b600080600090505b6002805490508110156118d6578273ffffffffffffffffffffffffffffffffffffffff166002828154811061186c5761186b6131ad565b5b906000526020600020906007020160000160009054906101000a900473ffffffffffffffffffffffffffffffffffffffff1673ffffffffffffffffffffffffffffffffffffffff1614156118c357809150506118e0565b80806118ce906130a8565b915050611834565b5060028054905090505b919050565b600080600283815481106118fc576118fb6131ad565b5b906000526020600020906007020160020180548060200260200160405190810160405280929190818152602001828054801561195757602002820191906000526020600020905b815481526020019060010190808311611943575b5050505050905060005b81518110156119aa578482828151811061197e5761197d6131ad565b5b60200260200101511415611997576001925050506119b1565b80806119a2906130a8565b915050611961565b5060009150505b92915050565b606060008214156119ff576040518060400160405280600181526020017f30000000000000000000000000000000000000000000000000000000000000008152509050611b3b565b600082905060005b60008214611a31578080611a1a906130a8565b915050600a82611a2a9190612efb565b9150611a07565b60008167ffffffffffffffff811115611a4d57611a4c6131dc565b5b6040519080825280601f01601f191660200182016040528015611a7f5781602001600182028036833780820191505090505b50905060008290505b60008614611b3357600181611a9d9190612f86565b90506000600a8088611aaf9190612efb565b611ab99190612f2c565b87611ac49190612f86565b6030611ad09190612ec4565b905060008160f81b905080848481518110611aee57611aed6131ad565b5b60200101907effffffffffffffffffffffffffffffffffffffffffffffffffffffffffffff1916908160001a905350600a88611b2a9190612efb565b97505050611a88565b819450505050505b919050565b6000828015611b4c5750815b15611b8c576040517f08c379a0000000000000000000000000000000000000000000000000000000008152600401611b8390612b64565b60405180910390fd5b600060055460018681548110611ba557611ba46131ad565b5b906000526020600020906004020160020160010154611bc49190612f2c565b60045460018781548110611bdb57611bda6131ad565b5b906000526020600020906004020160020160000154611bfa9190612f2c565b611c049190612e6e565b90508315611c2057600381611c199190612f2c565b9050611c37565b8215611c3657600281611c339190612f2c565b90505b5b809150509392505050565b60008054906101000a900473ffffffffffffffffffffffffffffffffffffffff1673ffffffffffffffffffffffffffffffffffffffff163373ffffffffffffffffffffffffffffffffffffffff1614611cd0576040517f08c379a0000000000000000000000000000000000000000000000000000000008152600401611cc790612ce4565b60405180910390fd5b60008060005b600280549050811015611d8c5760028181548110611cf757611cf66131ad565b5b90600052602060002090600702016006015460028281548110611d1d57611d1c6131ad565b5b906000526020600020906007020160050154611d399190612f2c565b83611d449190612e6e565b925060028181548110611d5a57611d596131ad565b5b90600052602060002090600702016005015482611d779190612e6e565b91508080611d84906130a8565b915050611cd6565b506000606482600a611d9e9190612f2c565b611da89190612efb565b90508082611db69190612f86565b915060008054906101000a900473ffffffffffffffffffffffffffffffffffffffff1673ffffffffffffffffffffffffffffffffffffffff166108fc829081150290604051600060405180830381858888f19350505050158015611e1e573d6000803e3d6000fd5b5060005b600280549050811015611f7557600080851415611e665760028281548110611e4d57611e4c6131ad565b5b9060005260206000209060070201600501549050611ed5565b848460028481548110611e7c57611e7b6131ad565b5b90600052602060002090600702016006015460028581548110611ea257611ea16131ad565b5b906000526020600020906007020160050154611ebe9190612f2c565b611ec89190612f2c565b611ed29190612efb565b90505b60028281548110611ee957611ee86131ad565b5b906000526020600020906007020160000160009054906101000a900473ffffffffffffffffffffffffffffffffffffffff1673ffffffffffffffffffffffffffffffffffffffff166108fc829081150290604051600060405180830381858888f19350505050158015611f60573d6000803e3d6000fd5b50508080611f6d906130a8565b915050611e22565b50505050565b5080546000825560040290600052602060002090810190611f9c9190612110565b50565b5080546000825560070290600052602060002090810190611fc09190612156565b50565b60405180606001604052806000815260200160608152602001611fe46121d4565b81525090565b828054611ff690613045565b90600052602060002090601f016020900481019282612018576000855561205f565b82601f1061203157805160ff191683800117855561205f565b8280016001018555821561205f579182015b8281111561205e578251825591602001919060010190612043565b5b50905061206c91906121ee565b5090565b6040518060e00160405280600073ffffffffffffffffffffffffffffffffffffffff1681526020016060815260200160608152602001600081526020016000815260200160008152602001600081525090565b8280548282559060005260206000209081019282156120ff579160200282015b828111156120fe5782518255916020019190600101906120e3565b5b50905061210c91906121ee565b5090565b5b8082111561215257600080820160009055600182016000612132919061220b565b600282016000808201600090556001820160009055505050600401612111565b5090565b5b808211156121d057600080820160006101000a81549073ffffffffffffffffffffffffffffffffffffffff0219169055600182016000612197919061220b565b6002820160006121a7919061224b565b600382016000905560048201600090556005820160009055600682016000905550600701612157565b5090565b604051806040016040528060008152602001600081525090565b5b808211156122075760008160009055506001016121ef565b5090565b50805461221790613045565b6000825580601f106122295750612248565b601f01602090049060005260206000209081019061224791906121ee565b5b50565b508054600082559060005260206000209081019061226991906121ee565b50565b600061227f61227a84612da9565b612d84565b905080838252602082019050828560208602820111156122a2576122a1613210565b5b60005b858110156122f057813567ffffffffffffffff8111156122c8576122c761320b565b5b8086016122d58982612408565b855260208501945060208401935050506001810190506122a5565b5050509392505050565b600061230d61230884612dd5565b612d84565b905080838252602082019050828560208602820111156123305761232f613210565b5b60005b8581101561236057816123468882612436565b845260208401935060208301925050600181019050612333565b5050509392505050565b600061237d61237884612e01565b612d84565b90508281526020810184848401111561239957612398613215565b5b6123a4848285613003565b509392505050565b600082601f8301126123c1576123c061320b565b5b81356123d184826020860161226c565b91505092915050565b600082601f8301126123ef576123ee61320b565b5b81356123ff8482602086016122fa565b91505092915050565b600082601f83011261241d5761241c61320b565b5b813561242d84826020860161236a565b91505092915050565b600081359050612445816136cb565b92915050565b6000602082840312156124615761246061321f565b5b600082013567ffffffffffffffff81111561247f5761247e61321a565b5b61248b848285016123ac565b91505092915050565b6000602082840312156124aa576124a961321f565b5b600082013567ffffffffffffffff8111156124c8576124c761321a565b5b6124d4848285016123da565b91505092915050565b6000602082840312156124f3576124f261321f565b5b600082013567ffffffffffffffff8111156125115761251061321a565b5b61251d84828501612408565b91505092915050565b6000806040838503121561253d5761253c61321f565b5b600061254b85828601612436565b925050602061255c85828601612436565b9150509250929050565b60008060006060848603121561257f5761257e61321f565b5b600061258d86828701612436565b935050602061259e86828701612436565b92505060406125af86828701612436565b9150509250925092565b6125c281612fba565b82525050565b60006125d382612e47565b6125dd8185612e52565b93506125ed818560208601613012565b6125f681613224565b840191505092915050565b600061260c82612e47565b6126168185612e63565b9350612626818560208601613012565b80840191505092915050565b6000815461263f81613045565b6126498186612e63565b945060018216600081146126645760018114612675576126a8565b60ff198316865281860193506126a8565b61267e85612e32565b60005b838110156126a057815481890152600182019150602081019050612681565b838801955050505b50505092915050565b60006126be602b83612e52565b91506126c982613235565b604082019050919050565b60006126e1602183612e52565b91506126ec82613284565b604082019050919050565b6000612704602083612e52565b915061270f826132d3565b602082019050919050565b6000612727600183612e63565b9150612732826132fc565b600182019050919050565b600061274a601483612e52565b915061275582613325565b602082019050919050565b600061276d600f83612e63565b91506127788261334e565b600f82019050919050565b6000612790603d83612e52565b915061279b82613377565b604082019050919050565b60006127b3602a83612e52565b91506127be826133c6565b604082019050919050565b60006127d6601a83612e52565b91506127e182613415565b602082019050919050565b60006127f9601c83612e52565b91506128048261343e565b602082019050919050565b600061281c600f83612e52565b915061282782613467565b602082019050919050565b600061283f600b83612e63565b915061284a82613490565b600b82019050919050565b6000612862601b83612e52565b915061286d826134b9565b602082019050919050565b6000612885601883612e52565b9150612890826134e2565b602082019050919050565b60006128a8601683612e52565b91506128b38261350b565b602082019050919050565b60006128cb601583612e52565b91506128d682613534565b602082019050919050565b60006128ee602083612e52565b91506128f98261355d565b602082019050919050565b6000612911601483612e52565b915061291c82613586565b602082019050919050565b6000612934601883612e52565b915061293f826135af565b602082019050919050565b6000612957602283612e52565b9150612962826135d8565b604082019050919050565b600061297a601183612e52565b915061298582613627565b602082019050919050565b600061299d601183612e52565b91506129a882613650565b602082019050919050565b60006129c0601383612e52565b91506129cb82613679565b602082019050919050565b60006129e3600f83612e52565b91506129ee826136a2565b602082019050919050565b6000612a058285612601565b9150612a118284612601565b91508190509392505050565b6000612a298285612601565b9150612a358284612632565b91508190509392505050565b6000612a4d8284612601565b9150612a588261271a565b915081905092915050565b6000612a6f8284612601565b9150612a7a82612760565b915081905092915050565b6000612a918284612601565b9150612a9c82612832565b915081905092915050565b6000602082019050612abc60008301846125b9565b92915050565b60006020820190508181036000830152612adc81846125c8565b905092915050565b60006020820190508181036000830152612afd816126b1565b9050919050565b60006020820190508181036000830152612b1d816126d4565b9050919050565b60006020820190508181036000830152612b3d816126f7565b9050919050565b60006020820190508181036000830152612b5d8161273d565b9050919050565b60006020820190508181036000830152612b7d81612783565b9050919050565b60006020820190508181036000830152612b9d816127a6565b9050919050565b60006020820190508181036000830152612bbd816127c9565b9050919050565b60006020820190508181036000830152612bdd816127ec565b9050919050565b60006020820190508181036000830152612bfd8161280f565b9050919050565b60006020820190508181036000830152612c1d81612855565b9050919050565b60006020820190508181036000830152612c3d81612878565b9050919050565b60006020820190508181036000830152612c5d8161289b565b9050919050565b60006020820190508181036000830152612c7d816128be565b9050919050565b60006020820190508181036000830152612c9d816128e1565b9050919050565b60006020820190508181036000830152612cbd81612904565b9050919050565b60006020820190508181036000830152612cdd81612927565b9050919050565b60006020820190508181036000830152612cfd8161294a565b9050919050565b60006020820190508181036000830152612d1d8161296d565b9050919050565b60006020820190508181036000830152612d3d81612990565b9050919050565b60006020820190508181036000830152612d5d816129b3565b9050919050565b60006020820190508181036000830152612d7d816129d6565b9050919050565b6000612d8e612d9f565b9050612d9a8282613077565b919050565b6000604051905090565b600067ffffffffffffffff821115612dc457612dc36131dc565b5b602082029050602081019050919050565b600067ffffffffffffffff821115612df057612def6131dc565b5b602082029050602081019050919050565b600067ffffffffffffffff821115612e1c57612e1b6131dc565b5b612e2582613224565b9050602081019050919050565b60008190508160005260206000209050919050565b600081519050919050565b600082825260208201905092915050565b600081905092915050565b6000612e7982612fec565b9150612e8483612fec565b9250827fffffffffffffffffffffffffffffffffffffffffffffffffffffffffffffffff03821115612eb957612eb86130f1565b5b828201905092915050565b6000612ecf82612ff6565b9150612eda83612ff6565b92508260ff03821115612ef057612eef6130f1565b5b828201905092915050565b6000612f0682612fec565b9150612f1183612fec565b925082612f2157612f20613120565b5b828204905092915050565b6000612f3782612fec565b9150612f4283612fec565b9250817fffffffffffffffffffffffffffffffffffffffffffffffffffffffffffffffff0483118215151615612f7b57612f7a6130f1565b5b828202905092915050565b6000612f9182612fec565b9150612f9c83612fec565b925082821015612faf57612fae6130f1565b5b828203905092915050565b6000612fc582612fcc565b9050919050565b600073ffffffffffffffffffffffffffffffffffffffff82169050919050565b6000819050919050565b600060ff82169050919050565b82818337600083830152505050565b60005b83811015613030578082015181840152602081019050613015565b8381111561303f576000848401525b50505050565b6000600282049050600182168061305d57607f821691505b602082108114156130715761307061317e565b5b50919050565b61308082613224565b810181811067ffffffffffffffff8211171561309f5761309e6131dc565b5b80604052505050565b60006130b382612fec565b91507fffffffffffffffffffffffffffffffffffffffffffffffffffffffffffffffff8214156130e6576130e56130f1565b5b600182019050919050565b7f4e487b7100000000000000000000000000000000000000000000000000000000600052601160045260246000fd5b7f4e487b7100000000000000000000000000000000000000000000000000000000600052601260045260246000fd5b7f4e487b7100000000000000000000000000000000000000000000000000000000600052602160045260246000fd5b7f4e487b7100000000000000000000000000000000000000000000000000000000600052602260045260246000fd5b7f4e487b7100000000000000000000000000000000000000000000000000000000600052603260045260246000fd5b7f4e487b7100000000000000000000000000000000000000000000000000000000600052604160045260246000fd5b600080fd5b600080fd5b600080fd5b600080fd5b600080fd5b6000601f19601f8301169050919050565b7f43616e277420736574206361707461696e7320666f72207468652066616e746160008201527f7379207465616d206e6f77000000000000000000000000000000000000000000602082015250565b7f5465616d20646f6573206e6f742065786973747320666f72207468652075736560008201527f7200000000000000000000000000000000000000000000000000000000000000602082015250565b7f5465616d20616c72656164792065786973747320666f72207468652075736572600082015250565b7f0a00000000000000000000000000000000000000000000000000000000000000600082015250565b7f47616d6520686173206e6f742073746f70706564000000000000000000000000600082015250565b7f3b20506c61796572204e616d653a200000000000000000000000000000000000600082015250565b7f4120706c617965722063616e206e6f74206265204361707461696e20616e642060008201527f56696365204361707461696e206174207468652073616d652074696d65000000602082015250565b7f506c61796572732063616e277420626520616464656420746f2066616e74617360008201527f79207465616d206e6f7700000000000000000000000000000000000000000000602082015250565b7f506c6179657220616c726561647920696e20746865207465616d000000000000600082015250565b7f43616e27742073657420706c617965722773207374617473206e6f7700000000600082015250565b7f43616e27742062696420616761696e0000000000000000000000000000000000600082015250565b7f506c617965722049443a20000000000000000000000000000000000000000000600082015250565b7f506c61796572732063616e2774206265206c6973746564206e6f770000000000600082015250565b7f426964732063616e277420626520706c61636564206e6f770000000000000000600082015250565b7f56696365204361707461696e206e6f7420616464656400000000000000000000600082015250565b7f506c6179657220646f6573206e6f742065786973740000000000000000000000600082015250565b7f46616e74617379207465616d732063616e2774206265206164646564206e6f77600082015250565b7f43616e27742061646420706c61796572206e6f77000000000000000000000000600082015250565b7f47616d6520616c726561647920696e2070726f67726573730000000000000000600082015250565b7f4d7573742062652061646d696e20746f2075736520746869732066756e63697460008201527f6f6e000000000000000000000000000000000000000000000000000000000000602082015250565b7f4361707461696e206e6f74206164646564000000000000000000000000000000600082015250565b7f5465616d20616c72656164792046756c6c000000000000000000000000000000600082015250565b7f43616e2774206368616e67652073746174757300000000000000000000000000600082015250565b7f5465616d20496e636f6d706c6574650000000000000000000000000000000000600082015250565b6136d481612fec565b81146136df57600080fd5b5056fea26469706673582212207468f9719c9b38b7c5c55347ff736faf63c67849d60bbe3a34d7db062cfc005a64736f6c63430008070033",
  "linkReferences": {},
  "deployedLinkReferences": {}
}